:020000000528D1
:10000A00831670308F000030850000308600003083
:10001A008700FF3088000730810083128316031798
:10002A0088018901831203138501860187010D3036
:10003A00A0003B2033204408C30064308C203908D8
:10004A00C2006430C3070A3093203908C1000A305D
:10005A00C3077D2082208720A5201F280808A0002A
:10006A002430200784000008C400080024308400DB
:10007A000030A1000030A20022082107A100C3001D
:10008A008000840A87200030C100C2007D208220BF
:10009A00A5202008031908000030A1000130A200A1
:1000AA0022082107A100C3008000840A8720A52016
:1000BA00A00B6028080022082107A3002208A1003B
:1000CA00C3008000840A2308A20064308C20390807
:1000DA00C2006430C3070A3093203908C1000A30CD
:1000EA00C3077D2082208720A520A00B6028080056
:1000FA0042080F399A208500080041080F399A20D2
:10010A008600080043080F399A2087000800B901C1
:10011A00C302031891280800B90A8D28B901C3023D
:10012A00031898280800B90A942882073F3406342D
:10013A005B344F3466346D347D3407347F346F3426
:10014A001E30C700A92008000B113C3081000B1D8E
:08015A00AC28C70BA92808001E
:04400E00E42FFF3F5D
:00000001FF
